{
  "contractName": "SimpleStorage",
  "abi": [
    {
      "inputs": [],
      "stateMutability": "nonpayable",
      "type": "constructor"
    },
    {
      "inputs": [
        {
          "internalType": "uint256",
          "name": "",
          "type": "uint256"
        }
      ],
      "name": "all_treaties",
      "outputs": [
        {
          "internalType": "address",
          "name": "country1",
          "type": "address"
        },
        {
          "internalType": "address",
          "name": "country2",
          "type": "address"
        },
        {
          "internalType": "string",
          "name": "treaty_text",
          "type": "string"
        },
        {
          "internalType": "bool",
          "name": "agreement_country1",
          "type": "bool"
        },
        {
          "internalType": "bool",
          "name": "agreement_country2",
          "type": "bool"
        }
      ],
      "stateMutability": "view",
      "type": "function",
      "constant": true
    },
    {
      "inputs": [
        {
          "internalType": "uint256",
          "name": "",
          "type": "uint256"
        }
      ],
      "name": "country",
      "outputs": [
        {
          "internalType": "address",
          "name": "",
          "type": "address"
        }
      ],
      "stateMutability": "view",
      "type": "function",
      "constant": true
    },
    {
      "inputs": [
        {
          "internalType": "string",
          "name": "",
          "type": "string"
        }
      ],
      "name": "link_add",
      "outputs": [
        {
          "internalType": "address",
          "name": "",
          "type": "address"
        }
      ],
      "stateMutability": "view",
      "type": "function",
      "constant": true
    },
    {
      "inputs": [],
      "name": "smart_contract_balance",
      "outputs": [
        {
          "internalType": "uint256",
          "name": "",
          "type": "uint256"
        }
      ],
      "stateMutability": "view",
      "type": "function",
      "constant": true
    },
    {
      "inputs": [],
      "name": "treaty__ID",
      "outputs": [
        {
          "internalType": "uint256",
          "name": "",
          "type": "uint256"
        }
      ],
      "stateMutability": "view",
      "type": "function",
      "constant": true
    },
    {
      "inputs": [],
      "name": "violation_of_treaty",
      "outputs": [
        {
          "internalType": "uint256",
          "name": "",
          "type": "uint256"
        }
      ],
      "stateMutability": "view",
      "type": "function",
      "constant": true
    },
    {
      "inputs": [
        {
          "internalType": "string",
          "name": "",
          "type": "string"
        }
      ],
      "name": "violation_text_and_treaty",
      "outputs": [
        {
          "internalType": "uint256",
          "name": "",
          "type": "uint256"
        }
      ],
      "stateMutability": "view",
      "type": "function",
      "constant": true
    },
    {
      "inputs": [
        {
          "internalType": "uint256",
          "name": "",
          "type": "uint256"
        }
      ],
      "name": "violations_address",
      "outputs": [
        {
          "internalType": "address",
          "name": "",
          "type": "address"
        }
      ],
      "stateMutability": "view",
      "type": "function",
      "constant": true
    },
    {
      "inputs": [
        {
          "internalType": "string",
          "name": "",
          "type": "string"
        }
      ],
      "name": "votes",
      "outputs": [
        {
          "internalType": "uint256",
          "name": "",
          "type": "uint256"
        }
      ],
      "stateMutability": "view",
      "type": "function",
      "constant": true
    },
    {
      "inputs": [
        {
          "internalType": "uint256",
          "name": "",
          "type": "uint256"
        }
      ],
      "name": "votes_tracker_add_country",
      "outputs": [
        {
          "internalType": "string",
          "name": "",
          "type": "string"
        }
      ],
      "stateMutability": "view",
      "type": "function",
      "constant": true
    },
    {
      "inputs": [
        {
          "internalType": "uint256",
          "name": "_id",
          "type": "uint256"
        }
      ],
      "name": "both_signed_countries",
      "outputs": [
        {
          "internalType": "bool",
          "name": "",
          "type": "bool"
        }
      ],
      "stateMutability": "view",
      "type": "function",
      "constant": true
    },
    {
      "inputs": [],
      "name": "keep_track_add_country_length",
      "outputs": [
        {
          "internalType": "uint256",
          "name": "",
          "type": "uint256"
        }
      ],
      "stateMutability": "view",
      "type": "function",
      "constant": true
    },
    {
      "inputs": [
        {
          "internalType": "string",
          "name": "_text",
          "type": "string"
        }
      ],
      "name": "remove_from_add_countries_vote_index",
      "outputs": [
        {
          "internalType": "uint256",
          "name": "",
          "type": "uint256"
        }
      ],
      "stateMutability": "view",
      "type": "function",
      "constant": true
    },
    {
      "inputs": [
        {
          "internalType": "string",
          "name": "_text",
          "type": "string"
        }
      ],
      "name": "remove_from_add_countries_vote",
      "outputs": [],
      "stateMutability": "nonpayable",
      "type": "function"
    },
    {
      "inputs": [
        {
          "internalType": "string",
          "name": "_text",
          "type": "string"
        }
      ],
      "name": "keep_track_add_country",
      "outputs": [],
      "stateMutability": "nonpayable",
      "type": "function"
    },
    {
      "inputs": [],
      "name": "countries_list",
      "outputs": [
        {
          "internalType": "address[]",
          "name": "",
          "type": "address[]"
        }
      ],
      "stateMutability": "view",
      "type": "function",
      "constant": true
    },
    {
      "inputs": [],
      "name": "number_of_countries",
      "outputs": [
        {
          "internalType": "uint256",
          "name": "",
          "type": "uint256"
        }
      ],
      "stateMutability": "view",
      "type": "function",
      "constant": true
    },
    {
      "inputs": [
        {
          "internalType": "address",
          "name": "address_of_country",
          "type": "address"
        }
      ],
      "name": "is_country_check",
      "outputs": [
        {
          "internalType": "bool",
          "name": "",
          "type": "bool"
        }
      ],
      "stateMutability": "view",
      "type": "function",
      "constant": true
    },
    {
      "inputs": [
        {
          "internalType": "uint256",
          "name": "_index",
          "type": "uint256"
        }
      ],
      "name": "remove",
      "outputs": [],
      "stateMutability": "nonpayable",
      "type": "function"
    },
    {
      "inputs": [
        {
          "internalType": "string",
          "name": "topic",
          "type": "string"
        }
      ],
      "name": "check_votes",
      "outputs": [
        {
          "internalType": "bool",
          "name": "",
          "type": "bool"
        }
      ],
      "stateMutability": "view",
      "type": "function",
      "constant": true
    },
    {
      "inputs": [
        {
          "internalType": "address payable",
          "name": "_to",
          "type": "address"
        }
      ],
      "name": "withdraw_money_to",
      "outputs": [],
      "stateMutability": "nonpayable",
      "type": "function"
    },
    {
      "inputs": [
        {
          "internalType": "uint256",
          "name": "_id",
          "type": "uint256"
        },
        {
          "internalType": "address",
          "name": "address_of_country",
          "type": "address"
        }
      ],
      "name": "find_country_to_violate_treaty",
      "outputs": [
        {
          "internalType": "address",
          "name": "",
          "type": "address"
        }
      ],
      "stateMutability": "view",
      "type": "function",
      "constant": true
    },
    {
      "inputs": [
        {
          "internalType": "string",
          "name": "topic",
          "type": "string"
        },
        {
          "internalType": "address",
          "name": "address_of_country",
          "type": "address"
        },
        {
          "internalType": "uint256",
          "name": "_id",
          "type": "uint256"
        },
        {
          "internalType": "uint256",
          "name": "flag",
          "type": "uint256"
        }
      ],
      "name": "vote",
      "outputs": [],
      "stateMutability": "payable",
      "type": "function",
      "payable": true
    },
    {
      "inputs": [
        {
          "internalType": "string",
          "name": "country_to_add",
          "type": "string"
        },
        {
          "internalType": "address",
          "name": "address_of_country",
          "type": "address"
        }
      ],
      "name": "add_country",
      "outputs": [],
      "stateMutability": "payable",
      "type": "function",
      "payable": true
    },
    {
      "inputs": [
        {
          "internalType": "address payable",
          "name": "add",
          "type": "address"
        }
      ],
      "name": "send_money",
      "outputs": [],
      "stateMutability": "payable",
      "type": "function",
      "payable": true
    },
    {
      "inputs": [
        {
          "internalType": "string",
          "name": "treaty_text",
          "type": "string"
        },
        {
          "internalType": "address",
          "name": "country2",
          "type": "address"
        }
      ],
      "name": "add_treaty",
      "outputs": [],
      "stateMutability": "nonpayable",
      "type": "function"
    },
    {
      "inputs": [
        {
          "internalType": "uint256",
          "name": "_id",
          "type": "uint256"
        },
        {
          "internalType": "string",
          "name": "event_text",
          "type": "string"
        }
      ],
      "name": "break_treaty",
      "outputs": [],
      "stateMutability": "nonpayable",
      "type": "function"
    }
  ],
  "bytecode": "0x60806040526000600655600060095534801561001a57600080fd5b50336000806101000a81548173ffffffffffffffffffffffffffffffffffffffff021916908373ffffffffffffffffffffffffffffffffffffffff160217905550600160008054906101000a900473ffffffffffffffffffffffffffffffffffffffff169080600181540180825580915050600190039060005260206000200160009091909190916101000a81548173ffffffffffffffffffffffffffffffffffffffff021916908373ffffffffffffffffffffffffffffffffffffffff1602179055506129d4806100ed6000396000f3fe60806040526004361061019c5760003560e01c80638a89ea02116100ec578063b99ef1fa1161008a578063ce2bf22311610064578063ce2bf2231461061e578063ee4379d214610649578063f410c19f14610665578063f731118f146106905761019c565b8063b99ef1fa1461059a578063c5c20ce1146105d7578063cda6a64f146105f35761019c565b806397b134fd116100c657806397b134fd146104ba5780639cebffde146104f7578063aa0aaac214610534578063aae03688146105715761019c565b80638a89ea0214610429578063905eb8a314610466578063927620a71461048f5761019c565b80633d4f40e0116101595780634cc82215116101335780634cc822151461038157806358f0d8d1146103aa5780636de0f730146103d5578063767d9930146103fe5761019c565b80633d4f40e0146102ff578063481ee706146103285780634c2c79dc146103655761019c565b80630223bb0d146101a15780631f6ff34f146101ca578063215587b4146102075780632c2fa0af14610244578063364c8a63146102815780633815ffe2146102c2575b600080fd5b3480156101ad57600080fd5b506101c860048036038101906101c39190611cb4565b6106cd565b005b3480156101d657600080fd5b506101f160048036038101906101ec9190611d17565b61073e565b6040516101fe9190611ddd565b60405180910390f35b34801561021357600080fd5b5061022e60048036038101906102299190611d17565b6107ea565b60405161023b9190611e20565b60405180910390f35b34801561025057600080fd5b5061026b60048036038101906102669190611e67565b610829565b6040516102789190611eaf565b60405180910390f35b34801561028d57600080fd5b506102a860048036038101906102a39190611d17565b6108d8565b6040516102b9959493929190611eca565b60405180910390f35b3480156102ce57600080fd5b506102e960048036038101906102e49190611f24565b6109f0565b6040516102f69190611e20565b60405180910390f35b34801561030b57600080fd5b5061032660048036038101906103219190612099565b610ada565b005b34801561033457600080fd5b5061034f600480360381019061034a9190611d17565b610c5e565b60405161035c9190611eaf565b60405180910390f35b61037f600480360381019061037a9190611cb4565b610cc8565b005b34801561038d57600080fd5b506103a860048036038101906103a39190611d17565b610d44565b005b3480156103b657600080fd5b506103bf610ead565b6040516103cc91906121b3565b60405180910390f35b3480156103e157600080fd5b506103fc60048036038101906103f791906121d5565b610f3b565b005b34801561040a57600080fd5b50610413610f7a565b604051610420919061222d565b60405180910390f35b34801561043557600080fd5b50610450600480360381019061044b91906121d5565b610f87565b60405161045d919061222d565b60405180910390f35b34801561047257600080fd5b5061048d60048036038101906104889190612248565b611004565b005b34801561049b57600080fd5b506104a4611149565b6040516104b1919061222d565b60405180910390f35b3480156104c657600080fd5b506104e160048036038101906104dc91906121d5565b611156565b6040516104ee9190611eaf565b60405180910390f35b34801561050357600080fd5b5061051e600480360381019061051991906121d5565b611191565b60405161052b9190611e20565b60405180910390f35b34801561054057600080fd5b5061055b600480360381019061055691906121d5565b6111da565b604051610568919061222d565b60405180910390f35b34801561057d57600080fd5b50610598600480360381019061059391906121d5565b611208565b005b3480156105a657600080fd5b506105c160048036038101906105bc91906121d5565b6113a3565b6040516105ce919061222d565b60405180910390f35b6105f160048036038101906105ec91906122a4565b6113d1565b005b3480156105ff57600080fd5b50610608611638565b604051610615919061222d565b60405180910390f35b34801561062a57600080fd5b5061063361163e565b604051610640919061222d565b60405180910390f35b610663600480360381019061065e9190612099565b611644565b005b34801561067157600080fd5b5061067a611878565b604051610687919061222d565b60405180910390f35b34801561069c57600080fd5b506106b760048036038101906106b29190611d17565b61187e565b6040516106c49190611e20565b60405180910390f35b8073ffffffffffffffffffffffffffffffffffffffff166108fc660aa87bee5380009081150290604051600060405180830381858888f1935050505015801561071a573d6000803e3d6000fd5b50660aa87bee538000600760008282546107349190612356565b9250508190555050565b6005818154811061074e57600080fd5b906000526020600020016000915090508054610769906123b9565b80601f0160208091040260200160405190810160405280929190818152602001828054610795906123b9565b80156107e25780601f106107b7576101008083540402835291602001916107e2565b820191906000526020600020905b8154815290600101906020018083116107c557829003601f168201915b505050505081565b600b81815481106107fa57600080fd5b906000526020600020016000915054906101000a900473ffffffffffffffffffffffffffffffffffffffff1681565b600080600090505b6001805490508110156108cd578273ffffffffffffffffffffffffffffffffffffffff1660018281548110610869576108686123eb565b5b9060005260206000200160009054906101000a900473ffffffffffffffffffffffffffffffffffffffff1673ffffffffffffffffffffffffffffffffffffffff1614156108ba5760019150506108d3565b80806108c59061241a565b915050610831565b50600090505b919050565b60026020528060005260406000206000915090508060000160009054906101000a900473ffffffffffffffffffffffffffffffffffffffff16908060010160009054906101000a900473ffffffffffffffffffffffffffffffffffffffff1690806002018054610947906123b9565b80601f0160208091040260200160405190810160405280929190818152602001828054610973906123b9565b80156109c05780601f10610995576101008083540402835291602001916109c0565b820191906000526020600020905b8154815290600101906020018083116109a357829003601f168201915b5050505050908060030160009054906101000a900460ff16908060030160019054906101000a900460ff16905085565b60008173ffffffffffffffffffffffffffffffffffffffff166002600085815260200190815260200160002060000160009054906101000a900473ffffffffffffffffffffffffffffffffffffffff1673ffffffffffffffffffffffffffffffffffffffff161415610a9a576002600084815260200190815260200160002060010160009054906101000a900473ffffffffffffffffffffffffffffffffffffffff169050610ad4565b6002600084815260200190815260200160002060000160009054906101000a900473ffffffffffffffffffffffffffffffffffffffff1690505b92915050565b6000610ae533610829565b905080610b27576040517f08c379a0000000000000000000000000000000000000000000000000000000008152600401610b1e906124af565b60405180910390fd5b610b358383600060036113d1565b826002600060065481526020019081526020016000206002019080519060200190610b61929190611ad2565b503360026000600654815260200190815260200160002060000160006101000a81548173ffffffffffffffffffffffffffffffffffffffff021916908373ffffffffffffffffffffffffffffffffffffffff1602179055508160026000600654815260200190815260200160002060010160006101000a81548173ffffffffffffffffffffffffffffffffffffffff021916908373ffffffffffffffffffffffffffffffffffffffff160217905550600160026000600654815260200190815260200160002060030160006101000a81548160ff02191690831515021790555060066000815480929190610c549061241a565b9190505550505050565b60006002600083815260200190815260200160002060030160009054906101000a900460ff168015610cb057506002600083815260200190815260200160002060030160019054906101000a900460ff165b15610cbe5760019050610cc3565b600090505b919050565b3460076000828254610cda91906124cf565b925050819055508073ffffffffffffffffffffffffffffffffffffffff166108fc349081150290604051600060405180830381858888f19350505050158015610d27573d6000803e3d6000fd5b503460076000828254610d3a9190612356565b9250508190555050565b6001805490508110610d8b576040517f08c379a0000000000000000000000000000000000000000000000000000000008152600401610d8290612571565b60405180910390fd5b60008190505b60018080549050610da29190612356565b811015610e625760018082610db791906124cf565b81548110610dc857610dc76123eb565b5b9060005260206000200160009054906101000a900473ffffffffffffffffffffffffffffffffffffffff1660018281548110610e0757610e066123eb565b5b9060005260206000200160006101000a81548173ffffffffffffffffffffffffffffffffffffffff021916908373ffffffffffffffffffffffffffffffffffffffff1602179055508080610e5a9061241a565b915050610d91565b506001805480610e7557610e74612591565b5b6001900381819060005260206000200160006101000a81549073ffffffffffffffffffffffffffffffffffffffff0219169055905550565b60606001805480602002602001604051908101604052809291908181526020018280548015610f3157602002820191906000526020600020905b8160009054906101000a900473ffffffffffffffffffffffffffffffffffffffff1673ffffffffffffffffffffffffffffffffffffffff1681526020019060010190808311610ee7575b5050505050905090565b600581908060018154018082558091505060019003906000526020600020016000909190919091509080519060200190610f76929190611ad2565b5050565b6000600180549050905090565b600080600090505b600580549050811015610ff957828051906020012060058281548110610fb857610fb76123eb565b5b90600052602060002001604051610fcf919061265f565b60405180910390201415610fe65780915050610fff565b8080610ff19061241a565b915050610f8f565b50600090505b919050565b61100d82610c5e565b61104c576040517f08c379a0000000000000000000000000000000000000000000000000000000008152600401611043906126c2565b60405180910390fd5b600061105733610829565b905080611099576040517f08c379a0000000000000000000000000000000000000000000000000000000008152600401611090906124af565b60405180910390fd5b6110a682338560026113d1565b600b339080600181540180825580915050600190039060005260206000200160009091909190916101000a81548173ffffffffffffffffffffffffffffffffffffffff021916908373ffffffffffffffffffffffffffffffffffffffff1602179055506009600081548092919061111c9061241a565b919050555082600a83604051611132919061271e565b908152602001604051809103902081905550505050565b6000600580549050905090565b6000600260018054905061116a9190612764565b60038360405161117a919061271e565b908152602001604051809103902054119050919050565b6008818051602081018201805184825260208301602085012081835280955050505050506000915054906101000a900473ffffffffffffffffffffffffffffffffffffffff1681565b600a818051602081018201805184825260208301602085012081835280955050505050506000915090505481565b600061121382610f87565b905060008190505b600160058054905061122d9190612356565b8110156112a757600560018261124391906124cf565b81548110611254576112536123eb565b5b9060005260206000200160058281548110611272576112716123eb565b5b90600052602060002001908054611288906123b9565b611293929190611b58565b50808061129f9061241a565b91505061121b565b5060006003836040516112ba919061271e565b90815260200160405180910390208190555060005b6004836040516112df919061271e565b90815260200160405180910390208054905081101561136e57600483604051611308919061271e565b908152602001604051809103902080548061132657611325612591565b5b6001900381819060005260206000200160006101000a81549073ffffffffffffffffffffffffffffffffffffffff0219169055905580806113669061241a565b9150506112cf565b50600580548061138157611380612591565b5b60019003818190600052602060002001600061139d9190611be5565b90555050565b6003818051602081018201805184825260208301602085012081835280955050505050506000915090505481565b60006113dc33610829565b90508061141e576040517f08c379a0000000000000000000000000000000000000000000000000000000008152600401611415906124af565b60405180910390fd5b61142885336118bd565b611467576040517f08c379a000000000000000000000000000000000000000000000000000000000815260040161145e906127e1565b60405180910390fd5b600385604051611477919061271e565b908152602001604051809103902060008154809291906114969061241a565b91905055506114a485611156565b15611631576001821415611523576001849080600181540180825580915050600190039060005260206000200160009091909190916101000a81548173ffffffffffffffffffffffffffffffffffffffff021916908373ffffffffffffffffffffffffffffffffffffffff16021790555061151e85611208565b611630565b600282141561158457611535846106cd565b600061154184866109f0565b9050600061154e82611a24565b905061155981610d44565b600060038860405161156b919061271e565b908152602001604051809103902081905550505061162f565b600382141561162e5760006002600085815260200190815260200160002060010160009054906101000a900473ffffffffffffffffffffffffffffffffffffffff1690508073ffffffffffffffffffffffffffffffffffffffff163373ffffffffffffffffffffffffffffffffffffffff16141561162c5760016002600086815260200190815260200160002060030160016101000a81548160ff0219169083151502179055505b505b5b5b5b5050505050565b60075481565b60065481565b660aa87bee53800034101561168e576040517f08c379a00000000000000000000000000000000000000000000000000000000081526004016116859061284d565b60405180910390fd5b34600760008282546116a091906124cf565b9250508190555060006116b233610829565b9050806116f4576040517f08c379a00000000000000000000000000000000000000000000000000000000081526004016116eb906124af565b60405180910390fd5b3373ffffffffffffffffffffffffffffffffffffffff1660008054906101000a900473ffffffffffffffffffffffffffffffffffffffff1673ffffffffffffffffffffffffffffffffffffffff1614801561177a57503373ffffffffffffffffffffffffffffffffffffffff168273ffffffffffffffffffffffffffffffffffffffff16145b1561178457611873565b600061178f83610829565b905060001515811515146117d8576040517f08c379a00000000000000000000000000000000000000000000000000000000081526004016117cf906128b9565b60405180910390fd5b6000846040516020016117eb9190612971565b604051602081830303815290604052905061180581610f3b565b6118138185600060016113d1565b83600882604051611824919061271e565b908152602001604051809103902060006101000a81548173ffffffffffffffffffffffffffffffffffffffff021916908373ffffffffffffffffffffffffffffffffffffffff16021790555050505b505050565b60095481565b6001818154811061188e57600080fd5b906000526020600020016000915054906101000a900473ffffffffffffffffffffffffffffffffffffffff1681565b600080600090505b6004846040516118d5919061271e565b908152602001604051809103902080549050811015611999578273ffffffffffffffffffffffffffffffffffffffff16600485604051611915919061271e565b90815260200160405180910390208281548110611935576119346123eb565b5b9060005260206000200160009054906101000a900473ffffffffffffffffffffffffffffffffffffffff1673ffffffffffffffffffffffffffffffffffffffff161415611986576000915050611a1e565b80806119919061241a565b9150506118c5565b506004836040516119aa919061271e565b9081526020016040518091039020829080600181540180825580915050600190039060005260206000200160009091909190916101000a81548173ffffffffffffffffffffffffffffffffffffffff021916908373ffffffffffffffffffffffffffffffffffffffff160217905550600190505b92915050565b600080600090505b600180549050811015611ac7578273ffffffffffffffffffffffffffffffffffffffff1660018281548110611a6457611a636123eb565b5b9060005260206000200160009054906101000a900473ffffffffffffffffffffffffffffffffffffffff1673ffffffffffffffffffffffffffffffffffffffff161415611ab45780915050611acd565b8080611abf9061241a565b915050611a2c565b50600090505b919050565b828054611ade906123b9565b90600052602060002090601f016020900481019282611b005760008555611b47565b82601f10611b1957805160ff1916838001178555611b47565b82800160010185558215611b47579182015b82811115611b46578251825591602001919060010190611b2b565b5b509050611b549190611c25565b5090565b828054611b64906123b9565b90600052602060002090601f016020900481019282611b865760008555611bd4565b82601f10611b975780548555611bd4565b82800160010185558215611bd457600052602060002091601f016020900482015b82811115611bd3578254825591600101919060010190611bb8565b5b509050611be19190611c25565b5090565b508054611bf1906123b9565b6000825580601f10611c035750611c22565b601f016020900490600052602060002090810190611c219190611c25565b5b50565b5b80821115611c3e576000816000905550600101611c26565b5090565b6000604051905090565b600080fd5b600080fd5b600073ffffffffffffffffffffffffffffffffffffffff82169050919050565b6000611c8182611c56565b9050919050565b611c9181611c76565b8114611c9c57600080fd5b50565b600081359050611cae81611c88565b92915050565b600060208284031215611cca57611cc9611c4c565b5b6000611cd884828501611c9f565b91505092915050565b6000819050919050565b611cf481611ce1565b8114611cff57600080fd5b50565b600081359050611d1181611ceb565b92915050565b600060208284031215611d2d57611d2c611c4c565b5b6000611d3b84828501611d02565b91505092915050565b600081519050919050565b600082825260208201905092915050565b60005b83811015611d7e578082015181840152602081019050611d63565b83811115611d8d576000848401525b50505050565b6000601f19601f8301169050919050565b6000611daf82611d44565b611db98185611d4f565b9350611dc9818560208601611d60565b611dd281611d93565b840191505092915050565b60006020820190508181036000830152611df78184611da4565b905092915050565b6000611e0a82611c56565b9050919050565b611e1a81611dff565b82525050565b6000602082019050611e356000830184611e11565b92915050565b611e4481611dff565b8114611e4f57600080fd5b50565b600081359050611e6181611e3b565b92915050565b600060208284031215611e7d57611e7c611c4c565b5b6000611e8b84828501611e52565b91505092915050565b60008115159050919050565b611ea981611e94565b82525050565b6000602082019050611ec46000830184611ea0565b92915050565b600060a082019050611edf6000830188611e11565b611eec6020830187611e11565b8181036040830152611efe8186611da4565b9050611f0d6060830185611ea0565b611f1a6080830184611ea0565b9695505050505050565b60008060408385031215611f3b57611f3a611c4c565b5b6000611f4985828601611d02565b9250506020611f5a85828601611e52565b9150509250929050565b600080fd5b600080fd5b7f4e487b7100000000000000000000000000000000000000000000000000000000600052604160045260246000fd5b611fa682611d93565b810181811067ffffffffffffffff82111715611fc557611fc4611f6e565b5b80604052505050565b6000611fd8611c42565b9050611fe48282611f9d565b919050565b600067ffffffffffffffff82111561200457612003611f6e565b5b61200d82611d93565b9050602081019050919050565b82818337600083830152505050565b600061203c61203784611fe9565b611fce565b90508281526020810184848401111561205857612057611f69565b5b61206384828561201a565b509392505050565b600082601f8301126120805761207f611f64565b5b8135612090848260208601612029565b91505092915050565b600080604083850312156120b0576120af611c4c565b5b600083013567ffffffffffffffff8111156120ce576120cd611c51565b5b6120da8582860161206b565b92505060206120eb85828601611e52565b9150509250929050565b600081519050919050565b600082825260208201905092915050565b6000819050602082019050919050565b61212a81611dff565b82525050565b600061213c8383612121565b60208301905092915050565b6000602082019050919050565b6000612160826120f5565b61216a8185612100565b935061217583612111565b8060005b838110156121a657815161218d8882612130565b975061219883612148565b925050600181019050612179565b5085935050505092915050565b600060208201905081810360008301526121cd8184612155565b905092915050565b6000602082840312156121eb576121ea611c4c565b5b600082013567ffffffffffffffff81111561220957612208611c51565b5b6122158482850161206b565b91505092915050565b61222781611ce1565b82525050565b6000602082019050612242600083018461221e565b92915050565b6000806040838503121561225f5761225e611c4c565b5b600061226d85828601611d02565b925050602083013567ffffffffffffffff81111561228e5761228d611c51565b5b61229a8582860161206b565b9150509250929050565b600080600080608085870312156122be576122bd611c4c565b5b600085013567ffffffffffffffff8111156122dc576122db611c51565b5b6122e88782880161206b565b94505060206122f987828801611e52565b935050604061230a87828801611d02565b925050606061231b87828801611d02565b91505092959194509250565b7f4e487b7100000000000000000000000000000000000000000000000000000000600052601160045260246000fd5b600061236182611ce1565b915061236c83611ce1565b92508282101561237f5761237e612327565b5b828203905092915050565b7f4e487b7100000000000000000000000000000000000000000000000000000000600052602260045260246000fd5b600060028204905060018216806123d157607f821691505b602082108114156123e5576123e461238a565b5b50919050565b7f4e487b7100000000000000000000000000000000000000000000000000000000600052603260045260246000fd5b600061242582611ce1565b91507fffffffffffffffffffffffffffffffffffffffffffffffffffffffffffffffff82141561245857612457612327565b5b600182019050919050565b7f556e617574686f72697365642041636365737300000000000000000000000000600082015250565b6000612499601383611d4f565b91506124a482612463565b602082019050919050565b600060208201905081810360008301526124c88161248c565b9050919050565b60006124da82611ce1565b91506124e583611ce1565b9250827fffffffffffffffffffffffffffffffffffffffffffffffffffffffffffffffff0382111561251a57612519612327565b5b828201905092915050565b7f496e646578206f7574206f6620626f756e640000000000000000000000000000600082015250565b600061255b601283611d4f565b915061256682612525565b602082019050919050565b6000602082019050818103600083015261258a8161254e565b9050919050565b7f4e487b7100000000000000000000000000000000000000000000000000000000600052603160045260246000fd5b600081905092915050565b60008190508160005260206000209050919050565b600081546125ed816123b9565b6125f781866125c0565b94506001821660008114612612576001811461262357612656565b60ff19831686528186019350612656565b61262c856125cb565b60005b8381101561264e5781548189015260018201915060208101905061262f565b838801955050505b50505092915050565b600061266b82846125e0565b915081905092915050565b7f4e6f7420612076616c696420636f6e7472616374000000000000000000000000600082015250565b60006126ac601483611d4f565b91506126b782612676565b602082019050919050565b600060208201905081810360008301526126db8161269f565b9050919050565b600081905092915050565b60006126f882611d44565b61270281856126e2565b9350612712818560208601611d60565b80840191505092915050565b600061272a82846126ed565b915081905092915050565b7f4e487b7100000000000000000000000000000000000000000000000000000000600052601260045260246000fd5b600061276f82611ce1565b915061277a83611ce1565b92508261278a57612789612735565b5b828204905092915050565b7f4e6f206475706c696361746520766f74657320616c6c6f776564000000000000600082015250565b60006127cb601a83611d4f565b91506127d682612795565b602082019050919050565b600060208201905081810360008301526127fa816127be565b9050919050565b7f4d696e696d756d20302e33206574686572207265717569726564000000000000600082015250565b6000612837601a83611d4f565b915061284282612801565b602082019050919050565b600060208201905081810360008301526128668161282a565b9050919050565b7f436f756e74727920616c72656164792061646465640000000000000000000000600082015250565b60006128a3601583611d4f565b91506128ae8261286d565b602082019050919050565b600060208201905081810360008301526128d281612896565b9050919050565b7f41646420636f756e747279000000000000000000000000000000000000000000600082015250565b600061290f600b836126e2565b915061291a826128d9565b600b82019050919050565b7f2000000000000000000000000000000000000000000000000000000000000000600082015250565b600061295b6001836126e2565b915061296682612925565b600182019050919050565b600061297c82612902565b91506129878261294e565b915061299382846126ed565b91508190509291505056fea26469706673582212203d0cebf9800fe03baa3d451ac1cc9621ab2beac7622430a4c03906ef2970fedd64736f6c634300080b0033",
  "immutableReferences": {},
  "source": "// SPDX-License-Identifier: GPL-3.0\npragma solidity >=0.7.0 <0.9.0;\n\n//structure for treaty \ncontract SimpleStorage {\n    struct Contracts{\n        address country1;\n        address country2;\n        string treaty_text;\n        bool agreement_country1;\n        bool agreement_country2;\n    }\n\n\taddress owner;\n    address[] public country;\n    mapping(uint=>Contracts) public all_treaties;\n    mapping(string=>uint) public votes;\n    mapping(string=>address[]) private unique_votes;\n    string[] public votes_tracker_add_country;\n    uint public treaty__ID = 0;\n    uint public smart_contract_balance;\n    mapping(string=>address) public link_add;\n    uint public violation_of_treaty=0;\n    mapping(string=>uint) public violation_text_and_treaty;\n    address[] public violations_address;\n    // TRY EVERYTGHING HERE\n    function both_signed_countries(uint _id) public view returns(bool){\n        if(all_treaties[_id].agreement_country1 &&  all_treaties[_id].agreement_country2)\n            return true;\n        else\n            return false;\n\n    }\n\n    function keep_track_add_country_length() public view returns(uint){\n        return votes_tracker_add_country.length;\n    }\n\n    function remove_from_add_countries_vote_index(string memory _text) public view returns(uint){\n        for(uint i=0;i<votes_tracker_add_country.length;i++){\n            if(keccak256(bytes(votes_tracker_add_country[i])) == keccak256(bytes(_text))){\n                    return i;\n            }\n        }\n        return 0;\n    }\n    function remove_from_add_countries_vote(string memory _text) public {\n        uint index_val = remove_from_add_countries_vote_index(_text);\n        for (uint i = index_val; i <votes_tracker_add_country.length - 1; i++) {\n           votes_tracker_add_country[i] =votes_tracker_add_country[i + 1];\n        }\n       votes[_text]=0;\n       for(uint i=0;i<unique_votes[_text].length;i++){\n           unique_votes[_text].pop();\n       }\n       votes_tracker_add_country.pop();\n    }\n\n    function keep_track_add_country(string memory _text) public{\n      votes_tracker_add_country.push(_text);\n    }\n \n    //END OF TRY EVERYTHING HERE\n\n    // return country list\n    function countries_list() public view returns(address[] memory){\n        return country;\n    }\n    //get the total number of countries in the blockchain\n    function number_of_countries() view public returns(uint){\n        return uint(country.length);\n    }\n\n    //constructor to initialize owner and deduct the 3 billion dollars worth cryto\n\tconstructor() {\n\t\towner = msg.sender;\n        country.push(owner);\n        // require(msg.value>=0.3 ether, \"Minimum 0.3 ether required\");\n        // smart_contract_balance+=msg.value;\n\t}\n\n    // check whether the account is a valid country or not\n    function is_country_check(address address_of_country) public view returns(bool){\n        for(uint index=0; index<country.length; index++){\n            if(country[index]==address_of_country)\n                return true;\n        }\n        return false;\n    }\n    \n    // function send_crypto(address receiver,uint currency) public {\n    //         msg.sender\n    //         payable(receiver).transfer(currency);\n\n    // }\n    // remove country from the list\n   function remove(uint _index) public {\n        require(_index <country.length, \"Index out of bound\");\n\n        for (uint i = _index; i <country.length - 1; i++) {\n           country[i] =country[i + 1];\n        }\n\n       country.pop();\n    }\n\n    // check the votes for any given event\n    function check_votes(string memory topic) public view returns(bool){\n        return votes[topic]>country.length/2; // check this part\n    }\n\n    // only allow one vote for a country \n    function check_unique_votes(string memory event_text,address address_of_country) private returns(bool){\n        for(uint index=0; index<unique_votes[event_text].length; index++){\n            if(unique_votes[event_text][index]==address_of_country){\n                return false;\n            }\n        }\n        unique_votes[event_text].push(address_of_country);\n        return true;\n    } \n\n    // find the index of the country from the array of countries\n    function find_country(address address_of_country) view private returns(uint){\n        for(uint x=0;x<country.length;x++){\n            if(country[x]==address_of_country)\n                return x;\n        }\n        return 0;\n    }\n\n    //if the treaty breaks for some country the money is tranferred to the victims account\n    function withdraw_money_to(address payable _to) public {\n        // _to.transfer(0.3 ether); \n        _to.transfer(0.003 ether); \n        smart_contract_balance-=0.003 ether;\n    }\n\n    // find country who have violated the treaty\n    function find_country_to_violate_treaty(uint _id, address address_of_country) view public returns(address){\n        if(all_treaties[_id].country1==address_of_country)\n            return all_treaties[_id].country2;\n        else\n            return all_treaties[_id].country1;\n    }\n\n    // start the vote for certain topic  adress of the country is the address of the innocent country or initialization of treaty country\n    function vote(string memory topic,address address_of_country,uint _id, uint flag) payable public{\n        bool is_country = is_country_check(msg.sender);\n        require(is_country,\"Unauthorised Access\");\n        require(check_unique_votes(topic,msg.sender),\"No duplicate votes allowed\");\n        votes[topic]++;\n        if(check_votes(topic)){\n            if(flag==1){\n                country.push(address_of_country);\n                remove_from_add_countries_vote(topic);\n            }\n            else if(flag==2){\n                    withdraw_money_to(payable(address_of_country));\n                    address country_to_remove=find_country_to_violate_treaty(_id, address_of_country);\n                    uint index_of_country = find_country(country_to_remove);\n                    // delete country[index_of_country];\n                    remove(index_of_country);\n                    votes[topic]=0;\n                }\n            else if(flag==3){\n                        address voter_country=all_treaties[_id].country2;\n                        if(msg.sender == voter_country)\n                            all_treaties[_id].agreement_country2=true;\n\n                   }\n\n            }\n        }\n    \n\n    // add country to the blockchain\n    function add_country(string memory country_to_add, address address_of_country) payable public {\n        // require(msg.value>=0.3 ether, \"Minimum 0.3 ether required\");\n        require(msg.value>=0.003 ether, \"Minimum 0.3 ether required\");\n        smart_contract_balance+=msg.value;  // store the required cryto as reserved\n        bool is_country = is_country_check(msg.sender);\n        require(is_country,\"Unauthorised Access\");\n\n       if(owner==msg.sender && address_of_country==msg.sender){\n\n        }\n        else{\n            bool is_country_to_add = is_country_check(address_of_country);\n            require(is_country_to_add==false,\"Country already added\");\n            \n            string memory topic = string(abi.encodePacked('Add country',' ',country_to_add));\n            keep_track_add_country(topic);\n            vote(topic,address_of_country,0,1); \n            link_add[topic] = address_of_country; \n\n        }\n    }\n     function send_money(address payable add) public payable {\n            smart_contract_balance+= msg.value;\n            add.transfer(msg.value);\n            smart_contract_balance-=msg.value;\n    }\n    // add treaty to the blockchain\n    function add_treaty(string memory treaty_text, address country2 ) public {\n        bool is_country = is_country_check(msg.sender);\n        require(is_country,\"Unauthorised Access\");\n        vote(treaty_text,country2,0,3); // a vote given by the initializer\n        all_treaties[treaty__ID].treaty_text = treaty_text;\n        all_treaties[treaty__ID].country1= msg.sender;\n        all_treaties[treaty__ID].country2 = country2;\n        all_treaties[treaty__ID].agreement_country1 = true;\n        treaty__ID++;\n    }\n    function is_treaty_country(address add, uint treaty_id) private view returns(bool){\n            if(all_treaties[treaty_id].country1==add || all_treaties[treaty_id].country2==add )\n                return true;\n            else\n                return false;\n    }\n    // function to initailize a vote for any broken treaty \n    // address of your country\n    function break_treaty(uint _id,string memory event_text) public {\n        require(both_signed_countries(_id),\"Not a valid contract\");\n        bool is_country = is_country_check(msg.sender);\n        require(is_country,\"Unauthorised Access\");\n        vote(event_text, msg.sender,_id,2); // add in web3 part\n        violations_address.push(msg.sender);\n        violation_of_treaty++;\n        violation_text_and_treaty[event_text] =_id;\n    }\n}",
  "sourcePath": "C:\\Users\\anupa\\Desktop\\Blockchain\\No more wars\\frontend\\contracts\\SimpleStorage.sol",
  "compiler": {
    "name": "solc",
    "version": "0.8.11+commit.d7f03943.Emscripten.clang"
  },
  "schemaVersion": "3.4.4",
  "updatedAt": "2022-03-22T06:41:49.222Z",
  "networkType": "ethereum",
  "devdoc": {
    "kind": "dev",
    "methods": {},
    "version": 1
  },
  "userdoc": {
    "kind": "user",
    "methods": {},
    "version": 1
  }
}