{
  "contractName": "Treaty",
  "abi": [
    {
      "inputs": [],
      "stateMutability": "nonpayable",
      "type": "constructor"
    },
    {
      "inputs": [
        {
          "internalType": "uint256",
          "name": "",
          "type": "uint256"
        }
      ],
      "name": "all_treaties",
      "outputs": [
        {
          "internalType": "address",
          "name": "country1",
          "type": "address"
        },
        {
          "internalType": "address",
          "name": "country2",
          "type": "address"
        },
        {
          "internalType": "string",
          "name": "treaty_text",
          "type": "string"
        },
        {
          "internalType": "bool",
          "name": "agreement_country1",
          "type": "bool"
        },
        {
          "internalType": "bool",
          "name": "agreement_country2",
          "type": "bool"
        }
      ],
      "stateMutability": "view",
      "type": "function",
      "constant": true
    },
    {
      "inputs": [
        {
          "internalType": "uint256",
          "name": "",
          "type": "uint256"
        }
      ],
      "name": "country",
      "outputs": [
        {
          "internalType": "address",
          "name": "",
          "type": "address"
        }
      ],
      "stateMutability": "view",
      "type": "function",
      "constant": true
    },
    {
      "inputs": [
        {
          "internalType": "string",
          "name": "",
          "type": "string"
        }
      ],
      "name": "link_add",
      "outputs": [
        {
          "internalType": "address",
          "name": "",
          "type": "address"
        }
      ],
      "stateMutability": "view",
      "type": "function",
      "constant": true
    },
    {
      "inputs": [],
      "name": "smart_contract_balance",
      "outputs": [
        {
          "internalType": "uint256",
          "name": "",
          "type": "uint256"
        }
      ],
      "stateMutability": "view",
      "type": "function",
      "constant": true
    },
    {
      "inputs": [],
      "name": "treaty__ID",
      "outputs": [
        {
          "internalType": "uint256",
          "name": "",
          "type": "uint256"
        }
      ],
      "stateMutability": "view",
      "type": "function",
      "constant": true
    },
    {
      "inputs": [],
      "name": "violation_of_treaty",
      "outputs": [
        {
          "internalType": "uint256",
          "name": "",
          "type": "uint256"
        }
      ],
      "stateMutability": "view",
      "type": "function",
      "constant": true
    },
    {
      "inputs": [
        {
          "internalType": "string",
          "name": "",
          "type": "string"
        }
      ],
      "name": "violation_text_and_treaty",
      "outputs": [
        {
          "internalType": "uint256",
          "name": "",
          "type": "uint256"
        }
      ],
      "stateMutability": "view",
      "type": "function",
      "constant": true
    },
    {
      "inputs": [
        {
          "internalType": "uint256",
          "name": "",
          "type": "uint256"
        }
      ],
      "name": "violations_address",
      "outputs": [
        {
          "internalType": "address",
          "name": "",
          "type": "address"
        }
      ],
      "stateMutability": "view",
      "type": "function",
      "constant": true
    },
    {
      "inputs": [
        {
          "internalType": "string",
          "name": "",
          "type": "string"
        }
      ],
      "name": "votes",
      "outputs": [
        {
          "internalType": "uint256",
          "name": "",
          "type": "uint256"
        }
      ],
      "stateMutability": "view",
      "type": "function",
      "constant": true
    },
    {
      "inputs": [
        {
          "internalType": "uint256",
          "name": "",
          "type": "uint256"
        }
      ],
      "name": "votes_tracker_add_country",
      "outputs": [
        {
          "internalType": "string",
          "name": "",
          "type": "string"
        }
      ],
      "stateMutability": "view",
      "type": "function",
      "constant": true
    },
    {
      "inputs": [
        {
          "internalType": "uint256",
          "name": "_id",
          "type": "uint256"
        }
      ],
      "name": "both_signed_countries",
      "outputs": [
        {
          "internalType": "bool",
          "name": "",
          "type": "bool"
        }
      ],
      "stateMutability": "view",
      "type": "function",
      "constant": true
    },
    {
      "inputs": [],
      "name": "keep_track_add_country_length",
      "outputs": [
        {
          "internalType": "uint256",
          "name": "",
          "type": "uint256"
        }
      ],
      "stateMutability": "view",
      "type": "function",
      "constant": true
    },
    {
      "inputs": [
        {
          "internalType": "string",
          "name": "_text",
          "type": "string"
        }
      ],
      "name": "remove_from_add_countries_vote_index",
      "outputs": [
        {
          "internalType": "uint256",
          "name": "",
          "type": "uint256"
        }
      ],
      "stateMutability": "view",
      "type": "function",
      "constant": true
    },
    {
      "inputs": [
        {
          "internalType": "string",
          "name": "_text",
          "type": "string"
        }
      ],
      "name": "remove_from_add_countries_vote",
      "outputs": [],
      "stateMutability": "nonpayable",
      "type": "function"
    },
    {
      "inputs": [
        {
          "internalType": "string",
          "name": "_text",
          "type": "string"
        }
      ],
      "name": "keep_track_add_country",
      "outputs": [],
      "stateMutability": "nonpayable",
      "type": "function"
    },
    {
      "inputs": [],
      "name": "countries_list",
      "outputs": [
        {
          "internalType": "address[]",
          "name": "",
          "type": "address[]"
        }
      ],
      "stateMutability": "view",
      "type": "function",
      "constant": true
    },
    {
      "inputs": [],
      "name": "number_of_countries",
      "outputs": [
        {
          "internalType": "uint256",
          "name": "",
          "type": "uint256"
        }
      ],
      "stateMutability": "view",
      "type": "function",
      "constant": true
    },
    {
      "inputs": [
        {
          "internalType": "address",
          "name": "address_of_country",
          "type": "address"
        }
      ],
      "name": "is_country_check",
      "outputs": [
        {
          "internalType": "bool",
          "name": "",
          "type": "bool"
        }
      ],
      "stateMutability": "view",
      "type": "function",
      "constant": true
    },
    {
      "inputs": [
        {
          "internalType": "uint256",
          "name": "_index",
          "type": "uint256"
        }
      ],
      "name": "remove",
      "outputs": [],
      "stateMutability": "nonpayable",
      "type": "function"
    },
    {
      "inputs": [
        {
          "internalType": "string",
          "name": "topic",
          "type": "string"
        }
      ],
      "name": "check_votes",
      "outputs": [
        {
          "internalType": "bool",
          "name": "",
          "type": "bool"
        }
      ],
      "stateMutability": "view",
      "type": "function",
      "constant": true
    },
    {
      "inputs": [
        {
          "internalType": "address payable",
          "name": "_to",
          "type": "address"
        }
      ],
      "name": "withdraw_money_to",
      "outputs": [],
      "stateMutability": "nonpayable",
      "type": "function"
    },
    {
      "inputs": [
        {
          "internalType": "uint256",
          "name": "_id",
          "type": "uint256"
        },
        {
          "internalType": "address",
          "name": "address_of_country",
          "type": "address"
        }
      ],
      "name": "find_country_to_violate_treaty",
      "outputs": [
        {
          "internalType": "address",
          "name": "",
          "type": "address"
        }
      ],
      "stateMutability": "view",
      "type": "function",
      "constant": true
    },
    {
      "inputs": [
        {
          "internalType": "string",
          "name": "topic",
          "type": "string"
        },
        {
          "internalType": "address",
          "name": "address_of_country",
          "type": "address"
        },
        {
          "internalType": "uint256",
          "name": "_id",
          "type": "uint256"
        },
        {
          "internalType": "uint256",
          "name": "flag",
          "type": "uint256"
        }
      ],
      "name": "vote",
      "outputs": [],
      "stateMutability": "payable",
      "type": "function",
      "payable": true
    },
    {
      "inputs": [
        {
          "internalType": "string",
          "name": "country_to_add",
          "type": "string"
        },
        {
          "internalType": "address",
          "name": "address_of_country",
          "type": "address"
        }
      ],
      "name": "add_country",
      "outputs": [],
      "stateMutability": "payable",
      "type": "function",
      "payable": true
    },
    {
      "inputs": [
        {
          "internalType": "address payable",
          "name": "add",
          "type": "address"
        }
      ],
      "name": "send_money",
      "outputs": [],
      "stateMutability": "payable",
      "type": "function",
      "payable": true
    },
    {
      "inputs": [
        {
          "internalType": "string",
          "name": "treaty_text",
          "type": "string"
        },
        {
          "internalType": "address",
          "name": "country2",
          "type": "address"
        }
      ],
      "name": "add_treaty",
      "outputs": [],
      "stateMutability": "nonpayable",
      "type": "function"
    },
    {
      "inputs": [
        {
          "internalType": "uint256",
          "name": "_id",
          "type": "uint256"
        },
        {
          "internalType": "string",
          "name": "event_text",
          "type": "string"
        }
      ],
      "name": "break_treaty",
      "outputs": [],
      "stateMutability": "nonpayable",
      "type": "function"
    }
  ],
  "bytecode": "0x60806040526000600655600060095534801561001a57600080fd5b50336000806101000a81548173ffffffffffffffffffffffffffffffffffffffff021916908373ffffffffffffffffffffffffffffffffffffffff160217905550600160008054906101000a900473ffffffffffffffffffffffffffffffffffffffff169080600181540180825580915050600190039060005260206000200160009091909190916101000a81548173ffffffffffffffffffffffffffffffffffffffff021916908373ffffffffffffffffffffffffffffffffffffffff1602179055506129bf806100ed6000396000f3fe60806040526004361061019c5760003560e01c80638a89ea02116100ec578063b99ef1fa1161008a578063ce2bf22311610064578063ce2bf2231461061e578063ee4379d214610649578063f410c19f14610665578063f731118f146106905761019c565b8063b99ef1fa1461059a578063c5c20ce1146105d7578063cda6a64f146105f35761019c565b806397b134fd116100c657806397b134fd146104ba5780639cebffde146104f7578063aa0aaac214610534578063aae03688146105715761019c565b80638a89ea0214610429578063905eb8a314610466578063927620a71461048f5761019c565b80633d4f40e0116101595780634cc82215116101335780634cc822151461038157806358f0d8d1146103aa5780636de0f730146103d5578063767d9930146103fe5761019c565b80633d4f40e0146102ff578063481ee706146103285780634c2c79dc146103655761019c565b80630223bb0d146101a15780631f6ff34f146101ca578063215587b4146102075780632c2fa0af14610244578063364c8a63146102815780633815ffe2146102c2575b600080fd5b3480156101ad57600080fd5b506101c860048036038101906101c39190611c9f565b6106cd565b005b3480156101d657600080fd5b506101f160048036038101906101ec9190611d02565b61073e565b6040516101fe9190611dc8565b60405180910390f35b34801561021357600080fd5b5061022e60048036038101906102299190611d02565b6107ea565b60405161023b9190611e0b565b60405180910390f35b34801561025057600080fd5b5061026b60048036038101906102669190611e52565b610829565b6040516102789190611e9a565b60405180910390f35b34801561028d57600080fd5b506102a860048036038101906102a39190611d02565b6108d8565b6040516102b9959493929190611eb5565b60405180910390f35b3480156102ce57600080fd5b506102e960048036038101906102e49190611f0f565b6109f0565b6040516102f69190611e0b565b60405180910390f35b34801561030b57600080fd5b5061032660048036038101906103219190612084565b610ada565b005b34801561033457600080fd5b5061034f600480360381019061034a9190611d02565b610c5e565b60405161035c9190611e9a565b60405180910390f35b61037f600480360381019061037a9190611c9f565b610cc8565b005b34801561038d57600080fd5b506103a860048036038101906103a39190611d02565b610d44565b005b3480156103b657600080fd5b506103bf610ead565b6040516103cc919061219e565b60405180910390f35b3480156103e157600080fd5b506103fc60048036038101906103f791906121c0565b610f3b565b005b34801561040a57600080fd5b50610413610f7a565b6040516104209190612218565b60405180910390f35b34801561043557600080fd5b50610450600480360381019061044b91906121c0565b610f87565b60405161045d9190612218565b60405180910390f35b34801561047257600080fd5b5061048d60048036038101906104889190612233565b611004565b005b34801561049b57600080fd5b506104a4611149565b6040516104b19190612218565b60405180910390f35b3480156104c657600080fd5b506104e160048036038101906104dc91906121c0565b611156565b6040516104ee9190611e9a565b60405180910390f35b34801561050357600080fd5b5061051e600480360381019061051991906121c0565b611191565b60405161052b9190611e0b565b60405180910390f35b34801561054057600080fd5b5061055b600480360381019061055691906121c0565b6111da565b6040516105689190612218565b60405180910390f35b34801561057d57600080fd5b50610598600480360381019061059391906121c0565b611208565b005b3480156105a657600080fd5b506105c160048036038101906105bc91906121c0565b611393565b6040516105ce9190612218565b60405180910390f35b6105f160048036038101906105ec919061228f565b6113c1565b005b3480156105ff57600080fd5b50610608611623565b6040516106159190612218565b60405180910390f35b34801561062a57600080fd5b50610633611629565b6040516106409190612218565b60405180910390f35b610663600480360381019061065e9190612084565b61162f565b005b34801561067157600080fd5b5061067a611863565b6040516106879190612218565b60405180910390f35b34801561069c57600080fd5b506106b760048036038101906106b29190611d02565b611869565b6040516106c49190611e0b565b60405180910390f35b8073ffffffffffffffffffffffffffffffffffffffff166108fc660aa87bee5380009081150290604051600060405180830381858888f1935050505015801561071a573d6000803e3d6000fd5b50660aa87bee538000600760008282546107349190612341565b9250508190555050565b6005818154811061074e57600080fd5b906000526020600020016000915090508054610769906123a4565b80601f0160208091040260200160405190810160405280929190818152602001828054610795906123a4565b80156107e25780601f106107b7576101008083540402835291602001916107e2565b820191906000526020600020905b8154815290600101906020018083116107c557829003601f168201915b505050505081565b600b81815481106107fa57600080fd5b906000526020600020016000915054906101000a900473ffffffffffffffffffffffffffffffffffffffff1681565b600080600090505b6001805490508110156108cd578273ffffffffffffffffffffffffffffffffffffffff1660018281548110610869576108686123d6565b5b9060005260206000200160009054906101000a900473ffffffffffffffffffffffffffffffffffffffff1673ffffffffffffffffffffffffffffffffffffffff1614156108ba5760019150506108d3565b80806108c590612405565b915050610831565b50600090505b919050565b60026020528060005260406000206000915090508060000160009054906101000a900473ffffffffffffffffffffffffffffffffffffffff16908060010160009054906101000a900473ffffffffffffffffffffffffffffffffffffffff1690806002018054610947906123a4565b80601f0160208091040260200160405190810160405280929190818152602001828054610973906123a4565b80156109c05780601f10610995576101008083540402835291602001916109c0565b820191906000526020600020905b8154815290600101906020018083116109a357829003601f168201915b5050505050908060030160009054906101000a900460ff16908060030160019054906101000a900460ff16905085565b60008173ffffffffffffffffffffffffffffffffffffffff166002600085815260200190815260200160002060000160009054906101000a900473ffffffffffffffffffffffffffffffffffffffff1673ffffffffffffffffffffffffffffffffffffffff161415610a9a576002600084815260200190815260200160002060010160009054906101000a900473ffffffffffffffffffffffffffffffffffffffff169050610ad4565b6002600084815260200190815260200160002060000160009054906101000a900473ffffffffffffffffffffffffffffffffffffffff1690505b92915050565b6000610ae533610829565b905080610b27576040517f08c379a0000000000000000000000000000000000000000000000000000000008152600401610b1e9061249a565b60405180910390fd5b610b358383600060036113c1565b826002600060065481526020019081526020016000206002019080519060200190610b61929190611abd565b503360026000600654815260200190815260200160002060000160006101000a81548173ffffffffffffffffffffffffffffffffffffffff021916908373ffffffffffffffffffffffffffffffffffffffff1602179055508160026000600654815260200190815260200160002060010160006101000a81548173ffffffffffffffffffffffffffffffffffffffff021916908373ffffffffffffffffffffffffffffffffffffffff160217905550600160026000600654815260200190815260200160002060030160006101000a81548160ff02191690831515021790555060066000815480929190610c5490612405565b9190505550505050565b60006002600083815260200190815260200160002060030160009054906101000a900460ff168015610cb057506002600083815260200190815260200160002060030160019054906101000a900460ff165b15610cbe5760019050610cc3565b600090505b919050565b3460076000828254610cda91906124ba565b925050819055508073ffffffffffffffffffffffffffffffffffffffff166108fc349081150290604051600060405180830381858888f19350505050158015610d27573d6000803e3d6000fd5b503460076000828254610d3a9190612341565b9250508190555050565b6001805490508110610d8b576040517f08c379a0000000000000000000000000000000000000000000000000000000008152600401610d829061255c565b60405180910390fd5b60008190505b60018080549050610da29190612341565b811015610e625760018082610db791906124ba565b81548110610dc857610dc76123d6565b5b9060005260206000200160009054906101000a900473ffffffffffffffffffffffffffffffffffffffff1660018281548110610e0757610e066123d6565b5b9060005260206000200160006101000a81548173ffffffffffffffffffffffffffffffffffffffff021916908373ffffffffffffffffffffffffffffffffffffffff1602179055508080610e5a90612405565b915050610d91565b506001805480610e7557610e7461257c565b5b6001900381819060005260206000200160006101000a81549073ffffffffffffffffffffffffffffffffffffffff0219169055905550565b60606001805480602002602001604051908101604052809291908181526020018280548015610f3157602002820191906000526020600020905b8160009054906101000a900473ffffffffffffffffffffffffffffffffffffffff1673ffffffffffffffffffffffffffffffffffffffff1681526020019060010190808311610ee7575b5050505050905090565b600581908060018154018082558091505060019003906000526020600020016000909190919091509080519060200190610f76929190611abd565b5050565b6000600180549050905090565b600080600090505b600580549050811015610ff957828051906020012060058281548110610fb857610fb76123d6565b5b90600052602060002001604051610fcf919061264a565b60405180910390201415610fe65780915050610fff565b8080610ff190612405565b915050610f8f565b50600090505b919050565b61100d82610c5e565b61104c576040517f08c379a0000000000000000000000000000000000000000000000000000000008152600401611043906126ad565b60405180910390fd5b600061105733610829565b905080611099576040517f08c379a00000000000000000000000000000000000000000000000000000000081526004016110909061249a565b60405180910390fd5b6110a682338560026113c1565b600b339080600181540180825580915050600190039060005260206000200160009091909190916101000a81548173ffffffffffffffffffffffffffffffffffffffff021916908373ffffffffffffffffffffffffffffffffffffffff1602179055506009600081548092919061111c90612405565b919050555082600a836040516111329190612709565b908152602001604051809103902081905550505050565b6000600580549050905090565b6000600260018054905061116a919061274f565b60038360405161117a9190612709565b908152602001604051809103902054119050919050565b6008818051602081018201805184825260208301602085012081835280955050505050506000915054906101000a900473ffffffffffffffffffffffffffffffffffffffff1681565b600a818051602081018201805184825260208301602085012081835280955050505050506000915090505481565b600061121382610f87565b905060008190505b600160058054905061122d9190612341565b8110156112a757600560018261124391906124ba565b81548110611254576112536123d6565b5b9060005260206000200160058281548110611272576112716123d6565b5b90600052602060002001908054611288906123a4565b611293929190611b43565b50808061129f90612405565b91505061121b565b5060058054806112ba576112b961257c565b5b6001900381819060005260206000200160006112d69190611bd0565b90555b60006004836040516112eb9190612709565b908152602001604051809103902080549050111561136b576004826040516113139190612709565b90815260200160405180910390208054806113315761133061257c565b5b6001900381819060005260206000200160006101000a81549073ffffffffffffffffffffffffffffffffffffffff021916905590556112d9565b600060038360405161137d9190612709565b9081526020016040518091039020819055505050565b6003818051602081018201805184825260208301602085012081835280955050505050506000915090505481565b60006113cc33610829565b90508061140e576040517f08c379a00000000000000000000000000000000000000000000000000000000081526004016114059061249a565b60405180910390fd5b61141885336118a8565b611457576040517f08c379a000000000000000000000000000000000000000000000000000000000815260040161144e906127cc565b60405180910390fd5b6003856040516114679190612709565b9081526020016040518091039020600081548092919061148690612405565b919050555061149485611156565b15611572576001821415611513576001849080600181540180825580915050600190039060005260206000200160009091909190916101000a81548173ffffffffffffffffffffffffffffffffffffffff021916908373ffffffffffffffffffffffffffffffffffffffff16021790555061150e85611208565b611571565b600282141561157057611525846106cd565b600061153184866109f0565b9050600061153e82611a0f565b905061154981610d44565b600060038860405161155b9190612709565b90815260200160405180910390208190555050505b5b5b600382141561161c5760006002600085815260200190815260200160002060010160009054906101000a900473ffffffffffffffffffffffffffffffffffffffff1690508073ffffffffffffffffffffffffffffffffffffffff163373ffffffffffffffffffffffffffffffffffffffff16141561161a5760016002600086815260200190815260200160002060030160016101000a81548160ff0219169083151502179055505b505b5050505050565b60075481565b60065481565b660aa87bee538000341015611679576040517f08c379a000000000000000000000000000000000000000000000000000000000815260040161167090612838565b60405180910390fd5b346007600082825461168b91906124ba565b92505081905550600061169d33610829565b9050806116df576040517f08c379a00000000000000000000000000000000000000000000000000000000081526004016116d69061249a565b60405180910390fd5b3373ffffffffffffffffffffffffffffffffffffffff1660008054906101000a900473ffffffffffffffffffffffffffffffffffffffff1673ffffffffffffffffffffffffffffffffffffffff1614801561176557503373ffffffffffffffffffffffffffffffffffffffff168273ffffffffffffffffffffffffffffffffffffffff16145b1561176f5761185e565b600061177a83610829565b905060001515811515146117c3576040517f08c379a00000000000000000000000000000000000000000000000000000000081526004016117ba906128a4565b60405180910390fd5b6000846040516020016117d6919061295c565b60405160208183030381529060405290506117f081610f3b565b6117fe8185600060016113c1565b8360088260405161180f9190612709565b908152602001604051809103902060006101000a81548173ffffffffffffffffffffffffffffffffffffffff021916908373ffffffffffffffffffffffffffffffffffffffff16021790555050505b505050565b60095481565b6001818154811061187957600080fd5b906000526020600020016000915054906101000a900473ffffffffffffffffffffffffffffffffffffffff1681565b600080600090505b6004846040516118c09190612709565b908152602001604051809103902080549050811015611984578273ffffffffffffffffffffffffffffffffffffffff166004856040516119009190612709565b908152602001604051809103902082815481106119205761191f6123d6565b5b9060005260206000200160009054906101000a900473ffffffffffffffffffffffffffffffffffffffff1673ffffffffffffffffffffffffffffffffffffffff161415611971576000915050611a09565b808061197c90612405565b9150506118b0565b506004836040516119959190612709565b9081526020016040518091039020829080600181540180825580915050600190039060005260206000200160009091909190916101000a81548173ffffffffffffffffffffffffffffffffffffffff021916908373ffffffffffffffffffffffffffffffffffffffff160217905550600190505b92915050565b600080600090505b600180549050811015611ab2578273ffffffffffffffffffffffffffffffffffffffff1660018281548110611a4f57611a4e6123d6565b5b9060005260206000200160009054906101000a900473ffffffffffffffffffffffffffffffffffffffff1673ffffffffffffffffffffffffffffffffffffffff161415611a9f5780915050611ab8565b8080611aaa90612405565b915050611a17565b50600090505b919050565b828054611ac9906123a4565b90600052602060002090601f016020900481019282611aeb5760008555611b32565b82601f10611b0457805160ff1916838001178555611b32565b82800160010185558215611b32579182015b82811115611b31578251825591602001919060010190611b16565b5b509050611b3f9190611c10565b5090565b828054611b4f906123a4565b90600052602060002090601f016020900481019282611b715760008555611bbf565b82601f10611b825780548555611bbf565b82800160010185558215611bbf57600052602060002091601f016020900482015b82811115611bbe578254825591600101919060010190611ba3565b5b509050611bcc9190611c10565b5090565b508054611bdc906123a4565b6000825580601f10611bee5750611c0d565b601f016020900490600052602060002090810190611c0c9190611c10565b5b50565b5b80821115611c29576000816000905550600101611c11565b5090565b6000604051905090565b600080fd5b600080fd5b600073ffffffffffffffffffffffffffffffffffffffff82169050919050565b6000611c6c82611c41565b9050919050565b611c7c81611c61565b8114611c8757600080fd5b50565b600081359050611c9981611c73565b92915050565b600060208284031215611cb557611cb4611c37565b5b6000611cc384828501611c8a565b91505092915050565b6000819050919050565b611cdf81611ccc565b8114611cea57600080fd5b50565b600081359050611cfc81611cd6565b92915050565b600060208284031215611d1857611d17611c37565b5b6000611d2684828501611ced565b91505092915050565b600081519050919050565b600082825260208201905092915050565b60005b83811015611d69578082015181840152602081019050611d4e565b83811115611d78576000848401525b50505050565b6000601f19601f8301169050919050565b6000611d9a82611d2f565b611da48185611d3a565b9350611db4818560208601611d4b565b611dbd81611d7e565b840191505092915050565b60006020820190508181036000830152611de28184611d8f565b905092915050565b6000611df582611c41565b9050919050565b611e0581611dea565b82525050565b6000602082019050611e206000830184611dfc565b92915050565b611e2f81611dea565b8114611e3a57600080fd5b50565b600081359050611e4c81611e26565b92915050565b600060208284031215611e6857611e67611c37565b5b6000611e7684828501611e3d565b91505092915050565b60008115159050919050565b611e9481611e7f565b82525050565b6000602082019050611eaf6000830184611e8b565b92915050565b600060a082019050611eca6000830188611dfc565b611ed76020830187611dfc565b8181036040830152611ee98186611d8f565b9050611ef86060830185611e8b565b611f056080830184611e8b565b9695505050505050565b60008060408385031215611f2657611f25611c37565b5b6000611f3485828601611ced565b9250506020611f4585828601611e3d565b9150509250929050565b600080fd5b600080fd5b7f4e487b7100000000000000000000000000000000000000000000000000000000600052604160045260246000fd5b611f9182611d7e565b810181811067ffffffffffffffff82111715611fb057611faf611f59565b5b80604052505050565b6000611fc3611c2d565b9050611fcf8282611f88565b919050565b600067ffffffffffffffff821115611fef57611fee611f59565b5b611ff882611d7e565b9050602081019050919050565b82818337600083830152505050565b600061202761202284611fd4565b611fb9565b90508281526020810184848401111561204357612042611f54565b5b61204e848285612005565b509392505050565b600082601f83011261206b5761206a611f4f565b5b813561207b848260208601612014565b91505092915050565b6000806040838503121561209b5761209a611c37565b5b600083013567ffffffffffffffff8111156120b9576120b8611c3c565b5b6120c585828601612056565b92505060206120d685828601611e3d565b9150509250929050565b600081519050919050565b600082825260208201905092915050565b6000819050602082019050919050565b61211581611dea565b82525050565b6000612127838361210c565b60208301905092915050565b6000602082019050919050565b600061214b826120e0565b61215581856120eb565b9350612160836120fc565b8060005b83811015612191578151612178888261211b565b975061218383612133565b925050600181019050612164565b5085935050505092915050565b600060208201905081810360008301526121b88184612140565b905092915050565b6000602082840312156121d6576121d5611c37565b5b600082013567ffffffffffffffff8111156121f4576121f3611c3c565b5b61220084828501612056565b91505092915050565b61221281611ccc565b82525050565b600060208201905061222d6000830184612209565b92915050565b6000806040838503121561224a57612249611c37565b5b600061225885828601611ced565b925050602083013567ffffffffffffffff81111561227957612278611c3c565b5b61228585828601612056565b9150509250929050565b600080600080608085870312156122a9576122a8611c37565b5b600085013567ffffffffffffffff8111156122c7576122c6611c3c565b5b6122d387828801612056565b94505060206122e487828801611e3d565b93505060406122f587828801611ced565b925050606061230687828801611ced565b91505092959194509250565b7f4e487b7100000000000000000000000000000000000000000000000000000000600052601160045260246000fd5b600061234c82611ccc565b915061235783611ccc565b92508282101561236a57612369612312565b5b828203905092915050565b7f4e487b7100000000000000000000000000000000000000000000000000000000600052602260045260246000fd5b600060028204905060018216806123bc57607f821691505b602082108114156123d0576123cf612375565b5b50919050565b7f4e487b7100000000000000000000000000000000000000000000000000000000600052603260045260246000fd5b600061241082611ccc565b91507fffffffffffffffffffffffffffffffffffffffffffffffffffffffffffffffff82141561244357612442612312565b5b600182019050919050565b7f556e617574686f72697365642041636365737300000000000000000000000000600082015250565b6000612484601383611d3a565b915061248f8261244e565b602082019050919050565b600060208201905081810360008301526124b381612477565b9050919050565b60006124c582611ccc565b91506124d083611ccc565b9250827fffffffffffffffffffffffffffffffffffffffffffffffffffffffffffffffff0382111561250557612504612312565b5b828201905092915050565b7f496e646578206f7574206f6620626f756e640000000000000000000000000000600082015250565b6000612546601283611d3a565b915061255182612510565b602082019050919050565b6000602082019050818103600083015261257581612539565b9050919050565b7f4e487b7100000000000000000000000000000000000000000000000000000000600052603160045260246000fd5b600081905092915050565b60008190508160005260206000209050919050565b600081546125d8816123a4565b6125e281866125ab565b945060018216600081146125fd576001811461260e57612641565b60ff19831686528186019350612641565b612617856125b6565b60005b838110156126395781548189015260018201915060208101905061261a565b838801955050505b50505092915050565b600061265682846125cb565b915081905092915050565b7f4e6f7420612076616c696420636f6e7472616374000000000000000000000000600082015250565b6000612697601483611d3a565b91506126a282612661565b602082019050919050565b600060208201905081810360008301526126c68161268a565b9050919050565b600081905092915050565b60006126e382611d2f565b6126ed81856126cd565b93506126fd818560208601611d4b565b80840191505092915050565b600061271582846126d8565b915081905092915050565b7f4e487b7100000000000000000000000000000000000000000000000000000000600052601260045260246000fd5b600061275a82611ccc565b915061276583611ccc565b92508261277557612774612720565b5b828204905092915050565b7f4e6f206475706c696361746520766f74657320616c6c6f776564000000000000600082015250565b60006127b6601a83611d3a565b91506127c182612780565b602082019050919050565b600060208201905081810360008301526127e5816127a9565b9050919050565b7f4d696e696d756d20302e33206574686572207265717569726564000000000000600082015250565b6000612822601a83611d3a565b915061282d826127ec565b602082019050919050565b6000602082019050818103600083015261285181612815565b9050919050565b7f436f756e74727920616c72656164792061646465640000000000000000000000600082015250565b600061288e601583611d3a565b915061289982612858565b602082019050919050565b600060208201905081810360008301526128bd81612881565b9050919050565b7f41646420636f756e747279000000000000000000000000000000000000000000600082015250565b60006128fa600b836126cd565b9150612905826128c4565b600b82019050919050565b7f2000000000000000000000000000000000000000000000000000000000000000600082015250565b60006129466001836126cd565b915061295182612910565b600182019050919050565b6000612967826128ed565b915061297282612939565b915061297e82846126d8565b91508190509291505056fea264697066735822122037bd333e9ae7d86a61b43fd93401dde5fa17c7460ccdcfcb23342e6c7ec6902164736f6c634300080b0033",
  "immutableReferences": {},
  "source": "// SPDX-License-Identifier: GPL-3.0\npragma solidity >=0.7.0 <0.9.0;\n\n \ncontract Treaty {\n//structure for treaty\n    struct Contracts{\n        address country1;\n        address country2;\n        string treaty_text;\n        bool agreement_country1;\n        bool agreement_country2;\n    }\n\n\taddress owner;\n    address[] public country;\n    mapping(uint=>Contracts) public all_treaties;\n    mapping(string=>uint) public votes;\n    mapping(string=>address[]) private unique_votes;\n    string[] public votes_tracker_add_country;\n    uint public treaty__ID = 0;\n    uint public smart_contract_balance;\n    mapping(string=>address) public link_add;\n    uint public violation_of_treaty=0;\n    mapping(string=>uint) public violation_text_and_treaty;\n    address[] public violations_address;\n    // TRY EVERYTGHING HERE\n    function both_signed_countries(uint _id) public view returns(bool){\n        if(all_treaties[_id].agreement_country1 &&  all_treaties[_id].agreement_country2)\n            return true;\n        else\n            return false;\n\n    }\n\n    function keep_track_add_country_length() public view returns(uint){\n        return votes_tracker_add_country.length;\n    }\n\n    function remove_from_add_countries_vote_index(string memory _text) public view returns(uint){\n        for(uint i=0;i<votes_tracker_add_country.length;i++){\n            if(keccak256(bytes(votes_tracker_add_country[i])) == keccak256(bytes(_text))){\n                    return i;\n            }\n        }\n        return 0;\n    }\n    function remove_from_add_countries_vote(string memory _text) public {\n        uint index_val = remove_from_add_countries_vote_index(_text);\n        for(uint i = index_val; i <votes_tracker_add_country.length - 1; i++) {\n           votes_tracker_add_country[i] =votes_tracker_add_country[i + 1];\n        }\n        votes_tracker_add_country.pop();\n  \n        while(unique_votes[_text].length>0){\n           unique_votes[_text].pop();\n        }\n        votes[_text]=0;\n    }\n\n    function keep_track_add_country(string memory _text) public{\n      votes_tracker_add_country.push(_text);\n    }\n \n    //END OF TRY EVERYTHING HERE\n\n    // return country list\n    function countries_list() public view returns(address[] memory){\n        return country;\n    }\n    //get the total number of countries in the blockchain\n    function number_of_countries() view public returns(uint){\n        return uint(country.length);\n    }\n\n    //constructor to initialize owner and deduct the 3 billion dollars worth cryto\n\tconstructor() {\n\t\towner = msg.sender;\n        country.push(owner);\n        // require(msg.value>=0.3 ether, \"Minimum 0.3 ether required\");\n        // smart_contract_balance+=msg.value;\n\t}\n\n    // check whether the account is a valid country or not\n    function is_country_check(address address_of_country) public view returns(bool){\n        for(uint index=0; index<country.length; index++){\n            if(country[index]==address_of_country)\n                return true;\n        }\n        return false;\n    }\n    \n    // function send_crypto(address receiver,uint currency) public {\n    //         msg.sender\n    //         payable(receiver).transfer(currency);\n\n    // }\n    // remove country from the list\n   function remove(uint _index) public {\n        require(_index <country.length, \"Index out of bound\");\n\n        for (uint i = _index; i <country.length - 1; i++) {\n           country[i] =country[i + 1];\n        }\n\n       country.pop();\n    }\n\n    // check the votes for any given event\n    function check_votes(string memory topic) public view returns(bool){\n        return votes[topic]>country.length/2; // check this part\n    }\n\n    // only allow one vote for a country \n    function check_unique_votes(string memory event_text,address address_of_country) private returns(bool){\n        for(uint index=0; index<unique_votes[event_text].length; index++){\n            if(unique_votes[event_text][index]==address_of_country){\n                return false;\n            }\n        }\n        unique_votes[event_text].push(address_of_country);\n        return true;\n    } \n\n    // find the index of the country from the array of countries\n    function find_country(address address_of_country) view private returns(uint){\n        for(uint x=0;x<country.length;x++){\n            if(country[x]==address_of_country)\n                return x;\n        }\n        return 0;\n    }\n\n    //if the treaty breaks for some country the money is tranferred to the victims account\n    function withdraw_money_to(address payable _to) public {\n        // _to.transfer(0.3 ether); \n        _to.transfer(0.003 ether); \n        smart_contract_balance-=0.003 ether;\n    }\n\n    // find country who have violated the treaty\n    function find_country_to_violate_treaty(uint _id, address address_of_country) view public returns(address){\n        if(all_treaties[_id].country1==address_of_country)\n            return all_treaties[_id].country2;\n        else\n            return all_treaties[_id].country1;\n    }\n\n    // start the vote for certain topic  adress of the country is the address of the innocent country or initialization of treaty country\n    function vote(string memory topic,address address_of_country,uint _id, uint flag) payable public{\n        bool is_country = is_country_check(msg.sender);\n        require(is_country,\"Unauthorised Access\");\n        require(check_unique_votes(topic,msg.sender),\"No duplicate votes allowed\");\n        votes[topic]++;\n        if(check_votes(topic)){\n            if(flag==1){\n                country.push(address_of_country);\n                remove_from_add_countries_vote(topic);\n            }\n            else if(flag==2){\n                    withdraw_money_to(payable(address_of_country));\n                    address country_to_remove=find_country_to_violate_treaty(_id, address_of_country);\n                    uint index_of_country = find_country(country_to_remove);\n                    // delete country[index_of_country];\n                    remove(index_of_country);\n                    votes[topic]=0;\n                }\n            }\n            if(flag==3){\n                        address voter_country=all_treaties[_id].country2;\n                        if(msg.sender == voter_country)\n                            all_treaties[_id].agreement_country2=true;\n\n                   }\n        }\n    \n\n    // add country to the blockchain\n    function add_country(string memory country_to_add, address address_of_country) payable public {\n        // require(msg.value>=0.3 ether, \"Minimum 0.3 ether required\");\n        require(msg.value>=0.003 ether, \"Minimum 0.3 ether required\");\n        smart_contract_balance+=msg.value;  // store the required cryto as reserved\n        bool is_country = is_country_check(msg.sender);\n        require(is_country,\"Unauthorised Access\");\n\n       if(owner==msg.sender && address_of_country==msg.sender){\n\n        }\n        else{\n            bool is_country_to_add = is_country_check(address_of_country);\n            require(is_country_to_add==false,\"Country already added\");\n            \n            string memory topic = string(abi.encodePacked('Add country',' ',country_to_add));\n            keep_track_add_country(topic);\n            vote(topic,address_of_country,0,1); \n            link_add[topic] = address_of_country; \n\n        }\n    }\n     function send_money(address payable add) public payable {\n            smart_contract_balance+= msg.value;\n            add.transfer(msg.value);\n            smart_contract_balance-=msg.value;\n    }\n    // add treaty to the blockchain\n    function add_treaty(string memory treaty_text, address country2 ) public {\n        bool is_country = is_country_check(msg.sender);\n        require(is_country,\"Unauthorised Access\");\n        vote(treaty_text,country2,0,3); // a vote given by the initializer\n        all_treaties[treaty__ID].treaty_text = treaty_text;\n        all_treaties[treaty__ID].country1= msg.sender;\n        all_treaties[treaty__ID].country2 = country2;\n        all_treaties[treaty__ID].agreement_country1 = true;\n        treaty__ID++;\n    }\n    function is_treaty_country(address add, uint treaty_id) private view returns(bool){\n            if(all_treaties[treaty_id].country1==add || all_treaties[treaty_id].country2==add )\n                return true;\n            else\n                return false;\n    }\n    // function to initailize a vote for any broken treaty \n    // address of your country\n    function break_treaty(uint _id,string memory event_text) public {\n        require(both_signed_countries(_id),\"Not a valid contract\");\n        bool is_country = is_country_check(msg.sender);\n        require(is_country,\"Unauthorised Access\");\n        vote(event_text, msg.sender,_id,2); // add in web3 part\n        violations_address.push(msg.sender);\n        violation_of_treaty++;\n        violation_text_and_treaty[event_text] =_id;\n    }\n}",
  "sourcePath": "C:\\Users\\anupa\\Desktop\\Blockchain\\No more wars\\frontend\\contracts\\Treaty.sol",
  "compiler": {
    "name": "solc",
    "version": "0.8.11+commit.d7f03943.Emscripten.clang"
  },
  "schemaVersion": "3.4.4",
  "updatedAt": "2022-03-24T08:29:24.942Z",
  "networkType": "ethereum",
  "devdoc": {
    "kind": "dev",
    "methods": {},
    "version": 1
  },
  "userdoc": {
    "kind": "user",
    "methods": {},
    "version": 1
  }
}